:020000040800F2
:10000000A8060020250500082D0500082F0500087A
:100010003105000833050008350500080000000020
:1000200000000000000000000000000009020008BD
:100030003905000800000000AD0200080D030008AB
:100040003F0500083F0500083F0500083F05000880
:100050003F0500083F050008E712000801130008EB
:100060003F0500083F0500083F0500083F05000860
:100070003F0500083F0500083F0500083F05000850
:100080003F0500083F0500083F0500083F05000840
:100090003F0500083F0500083F0500083F05000830
:1000A0003F0500083F0500083F0500083F05000820
:1000B0003F050008B30500083F0500083F0500089C
:1000C0003F0500083F0500083F0500083F05000800
:1000D0003F0500083F0500083F0500083F050008F0
:1000E0003F0500083F0500083F0500083F050008E0
:1000F0003F0500083F0500083F0500083F050008D0
:100100003F0500083F0500083F0500083F050008BF
:100110003F0500083F0500083F0500083F050008AF
:10012000211100083F0500083F0500083F050008B1
:100130003F0500083F0500083F0500083F0500088F
:100140003F0500083F0500083F0500083F0500087F
:100150003F0500083F0500083F0500083F0500086F
:100160003F0500083F0500083F0500083F0500085F
:100170003F0500083F0500083F0500083F0500084F
:100180003F0500083F050008DFF814D003F0CEFF5C
:100190000021024804F058FBFEE700005059000817
:1001A000A806002080F309887047684680F3098814
:1001B00004480078C00714BF0220032080F314888D
:1001C0007047000018590008DFF818C0EFF30583E6
:1001D0001B0618BF6047EFF31483DB0708BF6047B7
:1001E00000DF7047F1490008DFF818C0EFF305831E
:1001F0001B0618BF6047EFF31483DB0708BF604797
:1002000000DF7047714C0008EFF30980816911F835
:10021000021C002933D190E80F1010B5E047BDE86B
:100220001040EFF3098C8CE807001D4B93E80600A3
:10023000914208BF704781B11EF0100F06BF2CED30
:10024000108A0120002081F820002CE9F00FC1F86D
:1002500024C00CB405F00EF80CBC1A60D2F824C00F
:10026000BCE8F00F92F8200000281ABFBCEC108AFE
:100270006FF0120E6FF0020E8CF30988704710B504
:10028000084A1268914209D8074C54F8214090E876
:100290000F10A047EFF3098C8CE80F0010BD000091
:1002A000EC000020B4410008B441000810B504F08F
:1002B00085FEBDE81040174B93E80600914208BF49
:1002C0007047EFF3098C1EF0100F06BF2CED108A5B
:1002D0000120002081F820002CE9F00FC1F824C093
:1002E0000CB404F0C7FF0CBC1A60D2F824C0BCE800
:1002F000F00F92F8200000281ABFBCEC108A6FF0B3
:10030000120E6FF0020E8CF30988704710B505F0DD
:1003100077F8CEE7EC0000200CB5002001900090AB
:100320007548006840F480307349086000BF724827
:10033000006800F4003000900198401C0190009883
:1003400018B90198B0F5A06FF1D16B48006810F4AE
:10035000003F02D00120009001E0002000900098B2
:10036000012845D164484030006840F0805062491F
:10037000403108606148006840F480405F4908608F
:100380005D48083000685C4908310860084600682C
:1003900040F4004008600846006840F4A05008603F
:1003A0005748091F0860081F006840F08070091F47
:1003B000086000BF5048006810F0007FFAD040F29B
:1003C0000560504908604C480830006820F0030080
:1003D0004949083108600846006840F0020008609A
:1003E00000BF45480830006800F00C000828F8D12C
:1003F0000CBD10B54448006840F4700042490860E4
:100400003D48006840F001003B49086000203A493F
:1004100008310860384800683C490840364908609F
:100420003B48091D0860081F006820F48020091F50
:100430000860002030490C310860FFF76DFF4FF075
:10044000006031498039086010BD70B5002000227D
:10045000022300240221284D08352D6805F00C00E8
:1004600020B1042806D0082834D107E0294D2A4EAF
:10047000356033E0294D284E35602FE01E4D2D1D8F
:100480002D68C5F380541C4D2D1D2D6805F03F01CE
:1004900054B1224DB5FBF1F5174E361D3668C6F343
:1004A000881605FB06F209E01A4DB5FBF1F5124E70
:1004B000361D3668C6F3881605FB06F20E4D2D1D57
:1004C0002D68C5F301456D1C6B00B2FBF3F5124EB0
:1004D000356003E00F4D104E356000BF00BF064D84
:1004E00008352D68C5F303150D4E705D0A4D2D6856
:1004F000C540094E356070BD0038024000700040B4
:1005000008544007003C024088ED00E0FFFFF6FE83
:10051000103000240024F4000000002000127A00B3
:10052000040000200648804706480047FEE7FEE733
:10053000FEE7FEE7FEE7FEE7FEE7FEE7FEE7FEE793
:10054000F30300088901000800BFFEE700BFFEE7D3
:1005500000F01EFB00F0B0F800F0ECFE00F060F8D8
:1005600000F036FE224801F09FF8224801F09CF886
:10057000214801F099F8214801F096F800F0CAFDF1
:100580001F49086000F009F91E49086000F0A5FE47
:100590001D49086001F07BF91C49086003E04FF039
:1005A000FF3004F045F9FAE702E0642004F040F976
:1005B000FBE710B50121164803F02AFA1548016837
:1005C0000F48006804F0BAF913480068401C12494B
:1005D000086008460068052808D1104801680948E5
:1005E000006804F0ABF900200B49086010BD000062
:1005F0000801002038010020680100209801002037
:100600004000002044000020480000204C00002052
:1006100000040040280000203C000020340000209E
:100620000EB50121084602F0FFF80121880302F00F
:100630003FF90120019000208DF808008DF80A0094
:1006400002208DF809008DF80B0001A9154801F072
:10065000A5FE0021084602F02DFC01201249086089
:10066000002008710820487101208871084601F0B7
:10067000A7FD06208DF8000002208DF801008DF8FE
:10068000020001208DF80300684601F014F90EBD48
:1006900010B50121054801F0E3FE08B1012010BDAD
:1006A0000020FCE7000C0240500000200000024047
:1006B0003D4890ED000A704700B58BB0012108025B
:1006C00002F0F6F80020019002900390049001A837
:1006D00001F098F9002005908DF818008DF81900A8
:1006E0000790099001208DF8280005A92F4801F0F6
:1006F0005AF9012001F0C0F90723012210212B48EB
:1007000001F0DCF90121294801F098F90BB000BD96
:1007100000EE100AF8EE400A9FED250A9FED251A1B
:1007200011EE200A9FED241AF3EE090A40EE010AA9
:100730002249C1ED000A91ED000A70472DED028BB0
:1007400084B029E04FF0FF311D48006804F010F933
:1007500001AB07C3154801F00DFA00BF0221134891
:1007600001F02AFB0028F9D04FF0FF31154800684E
:1007700004F0D8F80D4801F039FA0446FFF7C8FF35
:10078000B0EE408A104800F0A3FF074880ED000A51
:100790000C48006804F0AEF8D4E710B500210B480F
:1007A00004F0F2F810BD00005C00002000200140C1
:1007B0005C8F423F010C403A0000C84358000020C3
:1007C00034000020600000209801002064590008D7
:1007D00000BFFEE710B504464FF48050E8490860BA
:1007E00007E0E7490868411EE54A116008B9FFF7CC
:1007F000EFFF0221E34802F014FB0028F1D021466C
:10080000E04802F0D7FA4FF48050DD49086007E075
:10081000DB490868411EDA4A116008B9FFF7D8FFC2
:100820000121D84802F0FDFA0028F1D0D54802F0A5
:10083000BEFAC0B210BD70B505460E461446012C76
:1008400001DD46F040060821CF4801F025FE304684
:10085000FFF7C0FF05E02878FFF7BCFF601E84B2F9
:100860006D1C012CF7DA0821C74801F013FE70BD9A
:1008700000B587B00121080302F01AF801210846EB
:1008800001F0D2FF0121102001F0CEFF0121102044
:1008900001F0CAFF0121102001F0C6FF0522114618
:1008A000BA4801F006FE05220621B84801F001FE13
:1008B00005220721B54801F0FCFD02208DF8180043
:1008C00000208DF81A0002208DF81B008DF8190009
:1008D0002020059005A9AD4801F060FD802005901D
:1008E00005A9AA4801F05AFD4020059005A9A7488E
:1008F00001F054FDA34802F0D5F80020ADF8000047
:10090000ADF80400ADF80600ADF808004FF4007033
:10091000ADF80A000820ADF80C000020ADF80E007C
:100920000720ADF810004FF48270ADF80200694660
:10093000944802F0DDF80121924802F0BAF908204B
:10094000059001208DF8180000208DF81A00022073
:100950008DF8190005A98C4801F020FD08218A486E
:1009600001F098FD0120059000208DF818008DF809
:100970001A0002208DF8190000208DF81B0005A92F
:10098000814801F00BFD0220059005A97E4801F089
:1009900005FD07B000BD38B5044600200090FFF704
:1009A00067FF607821780843E1780843217908439C
:1009B000A17808430090012220216846FFF73BFF01
:1009C00038BD70B506460C461546012D02DD44F0D3
:1009D000C00401E044F0800408216B4801F05CFD94
:1009E0002046FFF7F7FE06E00020FFF7F3FE307029
:1009F000681E85B2761C002DF6DC0821624801F0E5
:100A000049FD70BD38B50446002000900122212127
:100A10006846FFF7D6FF9DF8000000F0D000009078
:100A2000207861780843A17808439DF800100843B6
:100A30000090012221216846FFF7FDFE38BD38B540
:100A4000044600200090012238216846FFF7B9FFD4
:100A5000207861780843A17808430090012238216A
:100A60006846FFF7E8FE38BD38B50446012220216C
:100A70006846FFF7A6FF9DF8000000F0BF00009059
:100A80009DF8000020430090012220216846FFF7D6
:100A9000D2FE38BD38B50446012220216846FFF752
:100AA00090FF9DF8000000F07F0000909DF800008E
:100AB00020430090012220216846FFF7BCFE38BD8C
:100AC00038B50446012220216846FFF77AFF9DF8D9
:100AD000000000F0DF0000909DF80000204300902F
:100AE000012220216846FFF7A6FE38BD08B5012285
:100AF00021216846FFF765FF9DF8000040F04000A7
:100B00000090012221216846FFF795FE08BD3EB501
:100B100005460024012220216846FFF752FF0622E5
:100B2000292101A8FFF74DFF9DF8000010F02000DB
:100B300002D0202820D10FE000240AE001A911F8FA
:100B4000140040B200EBC000400028602D1D601C66
:100B5000C4B2032CF2DB10E000240AE001A911F872
:100B6000140040B200EBC000C00028602D1D601CC6
:100B7000C4B2032CF2DB00E000BF00BF3EBD0000AA
:100B80006C000020003001400010024000000240D4
:100B900000B587B00020069040208DF8100000209E
:100BA0008DF8110007208DF8120000208DF8130039
:100BB0008DF8140004A8FFF7EEFE382006900122FD
:100BC000222106A8FFF737FE1020069001223821C7
:100BD00006A8FFF730FEFF20069001223B2106A861
:100BE000FFF729FE0F20069001223C2106A8FFF7FF
:100BF00022FE0320069001223D2106A8FFF71BFEDE
:100C00007F20069001223E2106A8FFF714FE7F20D8
:100C1000069001223F2106A8FFF70DFE01211020BA
:100C200001F002FE0121880301F042FE00208DF850
:100C30000C008DF80F000220029002A9FE4801F07E
:100C4000ADFB0121042002F035F90220FB490860C8
:100C5000002008710820487101208871084601F0C1
:100C6000AFFA07208DF8040002208DF8050001205E
:100C70008DF806008DF8070001A800F01CFE012188
:100C8000880501F0D1FD4FF0C060ED490860ED48E6
:100C9000486000208860C860086148614FF4806047
:100CA00088610020C861086248624FF400308862A1
:100CB0000020C86201200863002048638863E2487E
:100CC00001F040F94020DE49C860DF48483001F0BB
:100CD00039F901220321DB480C3802F089F8E920B8
:100CE000DA49087038208DF8000002208DF80100E4
:100CF0008DF8020001208DF80300684600F0DBFD4E
:100D000001221021D04801F0E3F907B000BD10B571
:100D100004464FF0FF31CE48006803F003FECD4893
:100D200090ED000A84ED000A90ED010A84ED010ABD
:100D300090ED020A84ED020AC548006803F0DAFD6E
:100D400010BD10B504464FF0FF31C348006803F0F2
:100D5000E9FDC24890ED000A84ED000A90ED010A19
:100D600084ED010A90ED020A84ED020ABA48006897
:100D700003F0C0FD10BDB74890ED000A7047B548BC
:100D800090ED010A7047B34890ED020A704710B524
:100D900004464FF0FF31B248006803F0C3FDB1488C
:100DA00090ED000A84ED000A90ED010A84ED010A3D
:100DB000AB48006803F09EFD10BDAA4890ED000A04
:100DC0007047A84890ED010A704710B52DED0C8BC7
:100DD0004FF0FF31A248006803F0A4FD9D4890ED5C
:100DE000010A20EE000AD0ED020A90ED021A00EE90
:100DF000810A10EE101A084602F0C6FF41EC100BF3
:100E0000B0EE40DAF0EE60DA03F06CFBB0EE40BA20
:100E1000F0EE60BA8F4890ED000A10EE101A084606
:100E200002F0B2FF41EC100BB0EE40CAF0EE60CA27
:100E300053EC1B2B51EC1C0B02F037FF41EC100B59
:100E4000B0EE40AAF0EE60AA03F0CEF9B0EE409A00
:100E5000F0EE609A9FED840B53EC102B51EC190BC4
:100E600002F0B1FE41EC100BB0EE408AF0EE608A69
:100E700051EC180B02F0B0FF7A490860754890ED0C
:100E8000000A20EE000AD0ED020A90ED021A00EEF0
:100E9000810A10EE101A084602F076FF41EC100BA2
:100EA000B0EE40DAF0EE60DA03F01CFBB0EE40BAD0
:100EB000F0EE60BA674890ED010A10EE101A08468D
:100EC00002F062FF41EC100BB0EE40CAF0EE60CAD7
:100ED00053EC1B2B51EC1C0B02F0E7FE41EC100B0A
:100EE000B0EE40AAF0EE60AA03F07EF9B0EE409AB0
:100EF000F0EE609A9FED5C0B53EC102B51EC190B4C
:100F000002F061FE41EC100BB0EE408AF0EE608A18
:100F100051EC180B02F060FF5249486050480068DD
:100F200003F0E8FCBDEC0C8B10BD10B54948D0EDCA
:100F3000000AB0EE600A4E4800F0CAFB454880ED5A
:100F4000000AD0ED010AB0EE600A4A4800F0C0FB8A
:100F5000404880ED010AD0ED020AB0EE600A464832
:100F600000F0B6FB3B4880ED020A10BD10B5082129
:100F7000314801F091FA07203349091D08603F48C4
:100F800031490C31086001212F4801F015F8072084
:100F90002D494C3108602D482B49543108600121FE
:100FA0002948483001F008F810BD0EB5B1E04FF007
:100FB000FF313348006803F0DBFC8DE80700FFF7E2
:100FC000D5FF4FF0FF312F48006803F0D1FC8DE8CA
:100FD00007004FF0FF312048006803F0A3FC2748CA
:100FE00090F9010000EE100AB8EEC00A1B4880ED2F
:100FF000000A224890F9030000EE100AB8EEC00A79
:10100000164880ED010A1D4890F9050000EE100A0F
:10101000B8EEC00A114880ED020A4FF0FF310E48C9
:10102000006803F07FFC4FF0FF310948006803F0CF
:1010300079FC124828E00000001002409C000020CB
:10104000C80100200C3001401064024070000020F4
:1010500078000020040200208400002010020020FC
:1010600090000020A4000020B0CB631ADCA54C4007
:10107000080100203801002068010020AC00002099
:10108000280000202C00002090F9010000EE100A3A
:10109000B8EEC00AF7EE040A30EE600ADFED3D0A52
:1010A00080EE201A3C4880ED001A3C4890F903007D
:1010B00000EE100AB8EEC00AF7EE040A30EE200A7D
:1010C000DFED370A80EE201A334880ED011A3348ED
:1010D00090F9050000EE100AB8EEC00AF1EE050A1C
:1010E00030EE200ADFED2F0A80EE201A2A4880ED2C
:1010F000021AFFF71AFF4FF0FF312B48006803F088
:1011000011FCFFF762FE294801682948006803F0D6
:1011100015FC4CE710B50021264803F035FC10BD46
:1011200010B52549254800F0F0FF00B308212448F8
:1011300001F0B0F92349214800F0B6FF4FF0C0514B
:101140001E48483000F0B0FF1B491C4801F006F86B
:1011500000211A4800F030FF00211848483000F004
:101160002BFF194801681948006803F0E7FB10BD20
:1011700008B500200090012221216846FFF75BFBA3
:1011800008BD08B510200090012221216846FFF714
:1011900052FB08BD0000594204020020AC000020B0
:1011A0000000654200006742780000203000002007
:1011B0004C0000208059000820800010106402407C
:1011C00000100240200000102C00002040000020F1
:1011D00008B50121022001F05AFB1D208DF8000006
:1011E00000208DF8010001208DF802008DF8030029
:1011F000684600F060FBFFF728F94FF4FA700E49DB
:1012000048600E48006840084CF25031B0FBF1F0E5
:10121000401E0949088000200881102048800848A5
:1012200001F02DFF01221146054802F0C9FB012102
:10123000034801F0ADFF08BD1C02002000000020A3
:10124000000400400EB547E04FF0FF31334800681E
:1012500003F08EFB8DE807003148006838B3C820E2
:1012600003F0E6FA00202E4908602E4908602E4857
:10127000007801280AD0022804D003280AD00428C4
:1012800010D10BE00120284908700FE00220264908
:1012900008700BE004202449087007E0032022496D
:1012A000087003E004202049087000BF14E01D48C6
:1012B000006888B100201B4908601B48007802289C
:1012C00003D019480078012803D10320164908707B
:1012D00002E0022014490870B6E710B50021134857
:1012E00003F052FB10BD10B50C48016810480068AF
:1012F00003F024FB01200A49086000F0D8FF10BD6C
:1013000010B5064801680A48006803F017FB012081
:1013100004490860022000F0CAFF10BD3800002018
:10132000B4000020B80000202400002090590008DC
:10133000480000201CB50121082001F075FA4FF487
:101340007040009001208DF8040000208DF8060008
:1013500002208DF8050000208DF807006946374807
:1013600001F01CF81CBD10B54FF40051334801F0DA
:1013700093F810BD10B54FF48041304801F08CF85F
:1013800010BD10B54FF480512C4801F085F810BD08
:1013900010B54FF40041294801F07EF810BD10B59A
:1013A000FFF7F6FFFFF7EDFFFFF7E4FFFFF7DBFFC7
:1013B00010BD10B54FF40051204801F06BF810BD7E
:1013C00010B54FF480411D4801F064F810BD10B510
:1013D0004FF48051194801F05DF810BD10B54FF47D
:1013E0000041164801F056F810BD10B5FFF7F6FFA2
:1013F000FFF7EDFFFFF7E4FFFFF7DBFF10BD10B5D0
:101400000F480068401C0E490860084600683228F2
:1014100002D1FFF7EAFF08E009480068642804D316
:10142000FFF7BDFF00200649086010BD10B54FF45E
:101430007041024801F039F810BD0000000C024074
:10144000BC00002010B54FF0FF313148006803F0B8
:1014500069FAFFF72DF92F4880ED000A2C48006843
:1014600003F048FA2B4991ED000ABDEEC00A10EED8
:10147000100AC11700EB5171C910A0EBC10100EEB9
:10148000101AB8EEC00A234981ED000A084690ED13
:10149000000AF0EE000AB4EEE00AF1EE10FA08D20B
:1014A000FFF795FFFFF75FFFFFF764FFFFF770FFA0
:1014B0002DE0184890ED000AF1EE000AB4EEE00AC3
:1014C000F1EE10FA08D2FFF75CFFFFF772FFFFF7AB
:1014D00051FFFFF75DFF1AE00E4890ED000AF1EEB4
:1014E000080AB4EEE00AF1EE10FA08D2FFF749FF5D
:1014F000FFF739FFFFF764FFFFF74AFF07E0FFF749
:1015000040FFFFF730FFFFF735FFFFF767FF10BD24
:1015100060000020C000002010B52448FFF737FC11
:10152000224890ED000AFAEE000AB4EEE00AF1EE6D
:1015300010FA04D2FFF73DFFFFF72AFF12E01B4825
:1015400090ED000AF2EE000AB4EEE00AF1EE10FAB5
:1015500004DDFFF743FFFFF706FF03E0FFF718FF87
:10156000FFF701FF114890ED010AFAEE000AB4EE10
:10157000E00AF1EE10FA04D2FFF729FFFFF7FAFEB6
:1015800012E00A4890ED010AF2EE000AB4EEE00A19
:10159000F1EE10FA04DDFFF713FFFFF7F2FE03E0B0
:1015A000FFF7EFFEFFF7E6FE10BD0000C4000020CD
:1015B00010B53A48FFF7C5FB384890ED000A20EE19
:1015C000000AD0ED010A90ED011A00EE810AD0ED7B
:1015D000020A90ED021A00EE810A314880ED000AFD
:1015E00090ED000ADFED2F0AB4EEE00AF1EE10FAFA
:1015F00002D2FFF7D4FE50E0284890ED000AFAEE40
:10160000000AB4EEE00AF1EE10FA02D2FFF7E6FEAD
:101610000BE0224890ED000AF2EE000AB4EEE00A78
:10162000F1EE10FA01DDFFF7C4FE1C4890ED010A4F
:10163000FAEE000AB4EEE00AF1EE10FA02D2FFF779
:10164000BFFE0BE0154890ED010AF2EE000AB4EE81
:10165000E00AF1EE10FA01DDFFF7B9FE0F4890ED58
:10166000020AFAEE000AB4EEE00AF1EE10FA02D233
:10167000FFF7BBFE0DE0094890ED020AF2EE000A0A
:10168000B4EEE00AF1EE10FA03DDFFF7A7FEFFF774
:1016900090FE4FF4C87003F0CBF810BD3C02002060
:1016A000D00000200000C8429FED4F0A80ED000AE4
:1016B000002180F82C1000BF07E09FED4B0A021DAF
:1016C00002EB810282ED000A491C0A29F5DB704712
:1016D00010B52DED068B0446B0EE408A94ED000A5D
:1016E00038EE400A10EE101A084602F04DFB41ECAD
:1016F000100BB0EE40AAF0EE60AA02F0E9FEB0EEE8
:10170000409AF0EE609A9FED390B53EC102B51ECA0
:10171000190B02F04DFB25D294F82C10201D00EB84
:10172000810090ED000A38EE400AF2EE040A80EEE5
:10173000201A94ED000A31EE000A84ED000A94F8B4
:101740002C10201D00EB810080ED008A14F82C0F76
:10175000401C207014F82C090A2834D1002084F889
:101760002C0030E094F82C10201D00EB810090ED4F
:10177000000AB5EEC00AF1EE10FA24D194F82C104C
:10178000201D00EB810090ED000A78EE400AB2EED9
:10179000041A80EE810AD4ED000A30EE200A84EDAE
:1017A000000A94F82C10201D00EB810080ED008AC7
:1017B00014F82C0F401C207014F82C090A2802D1B0
:1017C000002084F82C0094ED000ABDEC068B10BDBF
:1017D0009FED081A20EE011ADFED071A01EEA01A9C
:1017E000B0EE410A70470000000000000000000059
:1017F000000008409899193E9A99593F0EB545E066
:101800004FF0FF312548006803F0B2F88DE807007B
:1018100023480078012802D1FFF714FE36E0204863
:101820000078022802D1FFF7EAFD2FE01C4800787B
:1018300003280BD1FFF770FE1A480078032801D067
:10184000FFF796FC0320174908701FE01448007842
:1018500004280BD1FFF7ACFE12480078042801D011
:10186000FFF78FFC04200F4908700FE00C48007848
:10187000052802D1FFF7B9FD08E0094800780628DD
:1018800002D1FFF78CFD01E0FFF7AFFDB8E710B51F
:101890000021054803F078F810BD0000300000205A
:1018A00024000020D4000020A0590008334901433F
:1018B000334A1160704770B5002100230F22C478AD
:1018C00024B32F4C246804F4E064C4F5E064C4F34A
:1018D0000721C1F10404E3B20A4144789C40E1B21B
:1018E0008478144021430C07210E264C057861555D
:1018F000047804F01F050124AC4005786D114FF009
:10190000E02606EB8505C5F8004109E0047804F0FF
:101910001F040125A5401C4C0678761144F826507A
:1019200070BD1A4A0A400243154B1B1F1A607047CC
:1019300039B1134A121D12680243114B1B1D1A6064
:1019400006E00F4A121D126882430D4B1B1D1A60E0
:101950007047042808D14FF0E021096941F00401E3
:101960004FF0E022116107E04FF0E021096921F01A
:1019700004014FF0E0221161704700000000FA05F9
:101980000CED00E000E400E080E100E080FFFF1FDC
:1019900010B50121080200F0F3FF00214FF4807020
:1019A00000F0EEFF10BD30B5024600200023506865
:1019B000F84C20400D790C6844EA0524204350601F
:1019C0009068F54C2040D1E903542C438D682C439A
:1019D0004D7944EA450420439060D06A20F47000B9
:1019E0000C7D641EE4B2234340EA0350D06230BD54
:1019F00000210160017141718160C16001610121BB
:101A0000017570470021E54A1168E54A01EA0201C3
:101A1000D0E9002342EA0302836842EA0302C36872
:101A200042EA030242EA0101DE4AC2F804137047A7
:101A30000021016041608160C160704721B182680E
:101A400042F00102826003E0826822F001028260BB
:101A500070470A4600214168D34B19401143416049
:101A600070474162826270470A460021416821F056
:101A70001F0111434160704738B1C849096841F4FA
:101A80000001C84AC2F8041306E0C449096821F4F9
:101A90000001C44AC2F80413704738B1BF4909684D
:101AA00041F48001BF4AC2F8041306E0BB4909684B
:101AB00021F48001BB4AC2F804137047F0B5044614
:101AC0000D4600200021092D11DDE068A5F10A0670
:101AD00006EB4607072606FA07F18843A5F10A0632
:101AE00006EB460603FA06F10843E0600CE02069C5
:101AF00005EB4507072606FA07F1884305EB45067F
:101B000003FA06F108432061072A0FDA606B561EBC
:101B100006EB86071F2606FA07F18843561E06EBDA
:101B2000860605FA06F10843606322E00D2A0FDA03
:101B3000206BD61F06EB86071F2606FA07F188439F
:101B4000D61F06EB860605FA06F10843206310E06F
:101B5000E06AA2F10D0606EB86071F2606FA07F1DA
:101B60008843A2F10D0606EB860605FA06F1084346
:101B7000E062F0BD816841F08041816070470146BC
:101B800000208A6812F4800F01D0012000E00020BC
:101B9000704721B1826842F48062826003E082680B
:101BA00022F480628260704721B1826842F00202B2
:101BB000826003E0826822F002028260704710B502
:101BC0000A4600210023416821F46041531E41EA86
:101BD0004331416010BD21B1426842F4006242606D
:101BE00003E0426822F40062426070470146C86C1C
:101BF00080B270476D480068704721B1826842F436
:101C00008072826003E0826822F480728260704792
:101C100021B1826842F40072826003E0826822F49B
:101C200000728260704738B15C49096841F4005124
:101C30005C4AC2F8041306E05849096821F40051CF
:101C4000584AC2F804137047F0B504461546002000
:101C500000220026092911DDE068A1F10A0707EB3F
:101C6000470C072707FA0CF29043A1F10A0707EB8C
:101C7000470703FA07F21043E0600CE0206901EB2C
:101C8000410C072707FA0CF2904301EB410703FAD6
:101C900007F210432061A06BC0F30156EF1C06F160
:101CA000010CA7EB0C0707EB870C1F2707FA0CF2B8
:101CB0009043EF1C06F1010CA7EB0C0707EB87071D
:101CC00001FA07F21043A063F0BD10B50A460021E7
:101CD0000023816B21F44011531E41EA03518163BB
:101CE00010BD08B5002300930090009B0B440093A7
:101CF000009B1A6008BD0A460021816821F470210A
:101D00001143816070470A460021816821F4401127
:101D1000114381607047816841F4800181607047A0
:101D2000014600208A6812F4800F01D0012000E0F3
:101D30000020704721B1426842F48062426003E0B3
:101D4000426822F480624260704721B1426842F4E6
:101D50008052426003E0426822F480524260704741
:101D600008B5024600200090009201F12800009B77
:101D7000184400900098006880B208BD10B50B466A
:101D80000021D9B2012404FA01F18AB144680C435C
:101D9000446010E0FFFEFFFCFDF7FFC0042301409C
:101DA000E030FCFF00200140FFFD3FFF0823014021
:101DB00044688C43446010BD0246002013680B4207
:101DC00001D0012000E000207047CA430260704744
:101DD00070B502460020002300240B12556801262E
:101DE0008E4005EA060415681D4202D00CB10120A0
:101DF00000E0002070BD00220A12D3430360704748
:101E0000016821F0010101600021016041608160F1
:101E1000C160016121214161DA49884204D13D213B
:101E2000D84A103A91608CE0D6491831884205D1E1
:101E30004FF47461D34A103A916082E0D149303155
:101E4000884205D14FF47411CE4A103A916078E07F
:101E5000CC494831884205D14FF07461C94A103AE3
:101E600091606EE0C7496031884204D1C649C54AD5
:101E7000103AD16065E0C3497831884204D1C34942
:101E8000C04A103AD1605CE0BE499031884204D12A
:101E9000BF49BC4A103AD16053E0BA49A8318842E0
:101EA00005D14FF03D51B74A103AD16049E0B949E8
:101EB000884204D13D21B74A083A116041E0B54952
:101EC0001831884205D14FF47461B24A083A116062
:101ED00037E0B0493031884205D14FF47411AD4A32
:101EE000083A11602DE0AB494831884205D14FF0E6
:101EF0007461A84A083A116023E0A649603188421B
:101F000004D1A149A34A121F11601AE0A1497831F6
:101F1000884204D19D499F4A121F116011E09D49DA
:101F20009031884204D19A499A4A121F116008E000
:101F30009849A831884204D14FF03D51954A121F6B
:101F40001160704710B500220268934B1A40CC68AC
:101F50000B6823434C6923438C692343CC69234397
:101F60000C6A23434C6A23438C6A23434C6B234300
:101F70008C6B23431A430260426922F00702D1E9C5
:101F80000B3423431A4342610B6943604B688360FF
:101F90008B68C36010BD0021016041608160C16039
:101FA000016141618161C161016241628162C1621D
:101FB000016341638163704721B1026842F001020D
:101FC000026003E0026822F001020260704721B162
:101FD000026842F40042026003E0026822F4004218
:101FE0000260704721B1026842F02002026003E003
:101FF000026822F02002026070474160704701468B
:10200000486880B2704722B1036843F4002303603C
:1020100003E0036823F4002303600161704721B1EA
:10202000026842F48022026003E0026822F4802207
:10203000026070470AB1016100E0C160704701466B
:1020400000200A6812F4002F01D0012000E00020D7
:102050007047014600200A6812F0010F01D00120EC
:1020600000E000207047014600204A6902F0380075
:10207000704730B503460A4600200024454DAB4268
:1020800002D24049103901E04249103912F0005F94
:1020900001D04C6800E00C68404D2C40144201D047
:1020A000012000E0002030BD02463A4B9A4202D2A5
:1020B0003448103801E03748103811F0005F03D081
:1020C000364B0B40C36002E0344B0B4083607047DB
:1020D00010B511F0800F09D022B1436943F080039D
:1020E000436103E0436923F08003436180290BD0FF
:1020F0002AB1036801F01E042343036004E003686F
:1021000001F01E04A343036010BD70B50246002019
:10211000002400251F4EB24202D21A4B103B01E0B0
:102120001C4B103B1E4E314206D01E2606EAD1241F
:10213000166806EA040502E0566906F0800511F00B
:10214000005F01D05C6800E01C68144E34400C4213
:1021500002D00DB1012000E0002070BD02460D4B01
:102160009A4202D20748103801E00A48103811F0AC
:10217000005F03D0094B0B40C36002E0074B0B40EC
:1021800083607047106002403D000020400F002037
:1021900000003D20106402403F801CF07D0F7D0F49
:1021A0003C0F3C0F002044490860091D0860091DD0
:1021B0000860091D086041483F49143108607047B4
:1021C00000213D498279002A3AD00A461268036804
:1021D0009A430B461A600A1D126803689A430B1D46
:1021E0001A60027911440A6803681A430A60324A85
:1021F0000832126803689A432F4B08331A601A1D7D
:10220000126803689A432C4B0C331A604279102AE7
:102210000ED11A1F126803681A43274B08331A603D
:102220001A1D126803681A43234B0C331A600DE021
:102230002149427911440A6803681A430A6005E09B
:10224000027911440A6803689A430A6070470021C2
:10225000016001710C2141710021817170471649A3
:10226000103109680143144A103211607047014669
:102270000020114A143212680A4201D0012000E005
:10228000002070470C491431086070470146002057
:102290000022094B1B6803EA0102074B14331B6839
:1022A0000B4202D00AB1012000E000207047024931
:1022B0001431086070470000003C0140FFFF7F00C0
:1022C00010B504468C48844208D10121084600F02C
:1022D00000FB0021012000F0FCFA5EE08748844208
:1022E00008D10121022000F0F4FA0021022000F0C0
:1022F000F0FA52E08248844208D10121042000F023
:10230000E8FA0021042000F0E4FA46E07D48844227
:1023100008D10121082000F0DCFA0021082000F09B
:10232000D8FA3AE07848844208D10121102000F020
:10233000D0FA0021102000F0CCFA2EE0734884423D
:1023400008D10121202000F0C4FA0021202000F053
:10235000C0FA22E06E48844208D10121402000F0FA
:10236000B8FA0021402000F0B4FA16E0694884422F
:1023700008D10121802000F0ACFA0021802000F07B
:10238000A8FA0AE06448844207D10121801500F0D0
:10239000A0FA0021A01500F09CFA10BDF0B50A4685
:1023A00000210023002400BF3DE0012505FA01F3D0
:1023B000156805EA03049C4234D105684F000326E2
:1023C000BE40B543056015794E00B54006683543FB
:1023D00005601579012D02D01579022D16D1856879
:1023E0004F000326BE40B543856055794E00B54089
:1023F000866835438560456801268E40B543456053
:10240000456896798E40B6B235434560C5684F0041
:102410000326BE40B543C560D5794E00B540C668B9
:102420003543C560491C1029BFD3F0BD4FF6FF717D
:1024300001600021017141718171C171704708B55E
:102440004FF480320092009A0A430092009AC261CF
:10245000C161009AC261C2690092C269009208BD5E
:102460000246002013690B4201D0012000E0002049
:1024700070470146086980B27047024600205369E0
:102480000B4201D0012000E000207047014648695E
:1024900080B2704701837047418370470AB101835E
:1024A00000E0418370474161704742694A404261A0
:1024B0007047F0B5002300244D07ED0E02FA05F336
:1024C000CE1000F1200555F826504E07F70E0F26C6
:1024D000BE40B543CF1000F1200646F82750CE107D
:1024E00000F1200555F8265045EA0304CE1000F10E
:1024F000200545F82640F0BD0000024000040240DF
:1025000000080240000C024000100240001402408B
:1025100000180240001C024000200240FA480068F7
:1025200040F00100F84908600020F74908310860D0
:10253000F5480068F5490840F3490860F448091D6A
:102540000860081F006820F48020091F0860002030
:10255000ED490C31086070470021EB4A921C117064
:1025600011460870704710B5014600220023002074
:102570004A11012A02D1E44C236808E0022A03D15F
:10258000E14C7034236802E0DF4C7434236801F0BE
:102590001F02012494401C4201D0012000E00020D1
:1025A00010BD38B5002000900024002500BF312068
:1025B000FFF7D9FF05460098401C00900098B0F541
:1025C000A06F01D0002DF2D03120FFF7CCFF08B171
:1025D000012400E00024204638BD01460020CA4AFC
:1025E000106820F0F80040EAC10010607047C94947
:1025F000086070470021C44A7032117011700128C0
:1026000002D004280AD104E00121BF4A70321170BF
:1026100005E00521BC4A7032117000E000BF00BF28
:102620007047BD490860704770B5049C41EA821547
:102630000126C6EB530645EA0645054345EA04650F
:10264000B14E361D356070BDB249086670478201D3
:1026500042EA0172AC4B84331A607047AD49886618
:102660007047AC49C864704702460020A64B083347
:10267000186820F0EC6042EA01031843A24B0833CB
:1026800018607047024600209F4B0833186820F0FE
:10269000784042EA010318439B4B083318607047A7
:1026A00001460020984A0832106820F003000843D1
:1026B0001060704794480830006800F00C007047C4
:1026C00001460020904A0832106820F0F0000843CC
:1026D00010607047014600208B4A0832106820F4D1
:1026E000E05008431060704701460020864A0832D7
:1026F000106820F4604040EAC10010607047F0B5F7
:102700000021002200240225002602237E4F0837E4
:102710003F6807F00C0121B1042905D0082937D101
:1027200005E07E4F076036E07D4F076033E0764F6F
:102730003F1D3F68C7F38056734F3F1D3F6807F04A
:102740003F036EB1764FB7FBF3F7DFF8BCC10CF176
:10275000040CDCF800C0CCF3881C07FB0CF40CE084
:102760006E4FB7FBF3F7DFF8A0C10CF1040CDCF8F7
:1027700000C0CCF3881C07FB0CF4634F3F1D3F687F
:10278000C7F301477F1C7D00B4FBF5F7076002E04B
:10279000624F076000BF00BF5B4F08373F6807F01C
:1027A000F00109095F4F7A5C0768D7404760564FD0
:1027B00008373F6807F4E051890A5A4F7A5C476846
:1027C000D7408760504F08373F6807F46041490B96
:1027D000544F7A5C4768D740C760F0BD002100F4D1
:1027E0004072B2F5407F0AD1474A0832116821F49D
:1027F000F8114D4A02401143434A08321160424ADF
:1028000070321268C0F30B031A433F4B70331A60E7
:10281000704741494439086070473F494039086072
:10282000704742490860704739B1374A3032126800
:102830000243354B30331A6006E0334A30321268B7
:102840008243314B30331A60704739B12E4A3432EB
:10285000126802432C4B34331A6006E02A4A3432A1
:1028600012688243284B34331A60704739B1264AC4
:10287000383212680243244B38331A6006E0224A89
:10288000383212688243204B38331A60704739B1AE
:102890001D4A4032126802431B4B40331A6006E067
:1028A000194A403212688243174B40331A6070470E
:1028B00039B1154A443212680243134B44331A604B
:1028C00006E0114A4432126882430F4B44331A60C7
:1028D000704739B10C4A1032126802430A4B103368
:1028E0001A6006E0084A103212688243064B103321
:1028F0001A607047E1B1044A143212680243024B75
:1029000014331A6019E0000000380240FFFFF6FEA1
:102910001030002400004742800E47420024F4009B
:1029200000127A00D5000020FFFCFF0F5C01474237
:102930005B4A126882435A4B1A60704739B1584A51
:10294000121D12680243564B1B1D1A6006E0544AC2
:10295000121D12688243524B1B1D1A60704739B119
:102960004F4A0C32126802434D4B0C331A6006E09A
:102970004B4A0C3212688243494B0C331A60704741
:1029800039B1474A103212680243454B10331A607E
:1029900006E0434A103212688243414B10331A60FA
:1029A000704739B13E4A3C32126802433C4B3C33DB
:1029B0001A6006E03A4A3C3212688243384B3C3394
:1029C0001A60704739B1364A403212680243344BBC
:1029D00040331A6006E0324A403212688243304B7C
:1029E00040331A60704739B12D4A443212680243AD
:1029F0002B4B44331A6006E0294A44321268824362
:102A0000274B44331A60704739B1254A4C3212685B
:102A10000243234B4C331A6006E0214A4C321268C1
:102A200082431F4B4C331A60704739B11C4A5032F5
:102A3000126802431A4B50331A6006E0184A5032AB
:102A400012688243164B50331A60704739B1144AEA
:102A5000D21F12780243124BDB1F1A7006E0104A95
:102A6000D21F127882430E4BDB1F1A7070470C483E
:102A70006030006840F0807009496031086070473C
:102A800001460020064A083A12680A4201D0012095
:102A900000E0002070470249891F0870704700005D
:102AA0001438024010B50446F648844208D101218A
:102AB0008014FFF765FF0021A014FFF761FF16E007
:102AC000F148844208D101210014FFF748FF00219A
:102AD0002014FFF744FF0AE0EC48844207D10121AB
:102AE000C013FFF73CFF0021E013FFF738FF10BDD4
:102AF00010B50022028802F441520B884C8823430F
:102B00008C882343CC8823430C8923434C8923435B
:102B10008C892343CC8923431A430280838B4FF251
:102B2000FF74234083830B8A038210BD2DE9F04F8D
:102B30000025022300240127002200269446904607
:102B40009146B0F81CA04FF2400B0AEA0B0AA0F81D
:102B50001CA04FF0020AA0F820A0858BD1F808A095
:102B6000BAF1020F01D100BF6AE0B1F804A0BAF1D6
:102B7000000F01D1012700E00227DFF814A3DAF8E3
:102B800000A01AF4000F09D0DFF804A3DAF800A0BF
:102B90002AF4000ADFF8F8B2CBF800A0DFF8F0A2C0
:102BA0000AF17C0ADAF800A0CAF38818DFF8E0A27C
:102BB0000AF17C0ADAF800A0CAF30279DFF8D0A2A1
:102BC000AAF1040ADAF800A00AF03F0CDFF8C4A268
:102BD000BAFBFCFA0AFB08FABAFBF9F6B1F806A050
:102BE000BAF5007F0ED14FEA162A0AEB8A0A4FEA9D
:102BF0004A0AD1F808B0BAFBFBFA0AF1050A1FFA33
:102C00008AF20FE04FEA471AB6FBFAFA0AEB8A0A91
:102C10004FEA4A0AD1F808B0BAFBFBFA0AF1050AF2
:102C20001FFA8AF24FF00A0AB2FBFAF202F001042C
:102C3000A2EB040ACAF34F034FF6FF7A0AEA042410
:102C4000022B01DBFF2B01DD02230024B1F806A0DB
:102C50004AEA040A4AEA030AA0F820A0B1F804A04C
:102C6000B1F80CB04AEA0B0AB1F802B04AEA0B0A12
:102C7000B1F800B04AEA0B0A4AF4006A4AEA0505CC
:102C80008583BDE8F08F0021018041808180C18073
:102C9000018141818181C181072101827047002129
:102CA000018041808180C180022181600021818179
:102CB000704721B1028842F04002028004E002889D
:102CC0004FF6BF731A400280704721B1828B42F4E5
:102CD0008062828304E0828B4FF6FF331A40828346
:102CE000704702884FF2FF731A40028002880A433D
:102CF00002807047B1F5804F04D1028842F48042CF
:102D0000028004E002884BF6FF731A40028070478D
:102D1000A1F57E42FF3A04D0028842F4807202801C
:102D200004E002884FF6FF631A400280704721B129
:102D3000828842F00402828004E082884FF6FB73AE
:102D40001A408280704721B1828842F0100282804E
:102D500004E082884FF6EF731A408280704730B5E6
:102D600000220023848B4FF240052C4084830224F0
:102D70000484828B0C88B4F5007F01D00C8814B9D0
:102D80004FF4807308E00C88B4F5407F03D00C88C2
:102D9000B4F5807F00D100238C888D892C434D8829
:102DA0002C431C4344F400642243828330BD01461B
:102DB000888970478181704721B1028842F40052AE
:102DC000028004E002884DF6FF731A4002807047CB
:102DD000018841F48051018070470246002001299A
:102DE00001D0108B00E0908A70470146088A704736
:102DF0001AB183880B43838002E083888B438380EE
:102E0000704730B5002400230C110125A540ABB25A
:102E10001AB185881D43858002E085889D438580A1
:102E200030BD0246002013890B4201D0012000E092
:102E300000207047CA4302817047F0B50246002067
:102E400000240023002501F00F070126BE40B4B284
:102E50000B1101269E40B3B2968806EA0305168937
:102E6000264202D00DB1012000E00020F0BD10B5D7
:102E7000002201F00F040123A3409AB2D34303813F
:102E800010BD00000030014000380040003C004010
:102E90000838024000127A0010B501218803FFF7BC
:102EA0006FFD00214FF48040FFF76AFD10BD1A4905
:102EB0000860704730B500228B071C0F0F2303FA00
:102EC00004F2154B08338C1053F824309343124C02
:102ED00008348D1044F8253023468C1053F82430E4
:102EE0008C07240F00FA04F423430B4C08348D1094
:102EF00044F8253030BD094908607047084908602A
:102F00007047002004492031096811F4807F01D006
:102F1000012000E00020704700380140DC0027421B
:102F20000004274210B50446FE48844208D101211E
:102F30000846FFF725FD00210120FFF721FD9DE058
:102F4000B4F1804F08D101210846FFF708FD0021A8
:102F50000120FFF704FD91E0F348844208D10121EC
:102F60000220FFF7FCFC00210220FFF7F8FC85E0BF
:102F7000EE48844208D101210420FFF7F0FC002133
:102F80000420FFF7ECFC79E0E948844208D10121F4
:102F90000820FFF7E4FC00210820FFF7E0FC6DE0CB
:102FA000E448844208D101211020FFF7D8FC002119
:102FB0001020FFF7D4FC61E0DF48844208D10121F2
:102FC0002020FFF7CCFC00212020FFF7C8FC55E0B3
:102FD000DA48844208D101210220FFF7D1FC002108
:102FE0000220FFF7CDFC49E0D548844209D10121F8
:102FF0000804FFF7C5FC00214FF48030FFF7C0FC48
:103000003CE0D048844209D101214804FFF7B8FCD4
:1030100000214FF40030FFF7B3FC2FE0CA48844290
:1030200009D101218804FFF7ABFC00214FF4802077
:10303000FFF7A6FC22E0C548844208D101214020C8
:10304000FFF78DFC00214020FFF789FC16E0C04807
:10305000844208D101218020FFF781FC00218020DB
:10306000FFF77DFC0AE0BB48844207D101218015AF
:10307000FFF775FC0021A015FFF771FC10BD0022C1
:103080000288A84B98420ED0AC4B98420BD0B0F1BE
:10309000804F08D0A44B984205D0A44B984202D050
:1030A000A34B984204D14FF68F731A404B881A43B2
:1030B000A04B984207D0A04B984204D04FF6FF4354
:1030C0001A400B891A4302804B68C3620B88038540
:1030D000944B984202D0994B984201D18B7A038647
:1030E0000123838270474FF0FF314160002101804E
:1030F00001814180817270470185828270470A4652
:10310000002101884FF68F731940114301807047E9
:1031100041627047C16270470146486A7047014684
:10312000088D704721B1028842F00202028004E05B
:1031300002884FF6FD731A400280704721B1028861
:1031400042F00402028004E002884FF6FB731A404A
:103150000280704721B1028842F08002028004E0C0
:1031600002884FF67F731A400280704702884FF63C
:10317000F7731A40028002880A430280704702886F
:103180004FF6FF431A40028002880A4302807047CC
:1031900021B1028842F00102028004E002884FF669
:1031A000FE731A400280704770B50024002200238D
:1031B000058C4FF6FE7635400584028C8388048B9F
:1031C0004FF68F752C40B51E2C400D882C43751E74
:1031D0002A408D892A434D882A43524DA84202D065
:1031E000564DA84213D14FF6F7752A40CD892A4390
:1031F0004FF6FB752A408D882A434FF6FF652B401A
:103200004FF6FF552B400D8A2B434D8A2B4383806D
:1032100004838D684563028470BD70B5002400226C
:103220000023058C4FF6EF7635400584028C8388A9
:10323000048B48F6FF752C404FF6FF452C400D8857
:103240004FF6FF7606EA05252C434FF6DF752A4038
:103250008D8906EA05152A434D8806EA05152A4395
:10326000304DA84202D0354DA8421DD14FF67F7592
:103270002A40CD894FF6FF7606EA05152A434FF618
:10328000BF752A408D8806EA05152A434FF6FF359B
:103290002B404FF2FF752B400D8A06EA85052B4324
:1032A0004D8A06EA85052B43838004838D688563F8
:1032B000028470BD70B5002400220023058C4FF6F7
:1032C000FF6635400584028C8388848B4FF68F75AA
:1032D0002C404FF6FC752C400D882C434FF6FF55C3
:1032E0002A408D894FF6FF7606EA05252A434D8848
:1032F00006EA05252A430B4DA84202D00F4DA842ED
:1033000038D14FF2FF752A40CD894FF6FF7606EA95
:1033100005252A434FF6FF352A408D8806EA052504
:103320002A4319E00000014000040040000800406A
:10333000000C004000100040001400400004014058
:103340000040014000440140004801400018004096
:10335000001C0040002000404EF6FF752B404DF64B
:10336000FF752B400D8A06EA05152B434D8A06EAA8
:1033700005152B43838084838D68C563028470BDEB
:1033800070B5002200230024058C4EF6FF763540F0
:103390000584038C8488828B48F6FF752A404FF69B
:1033A000FF452A400D884FF6FF7606EA05252A4399
:1033B0004DF6FF752B408D8906EA05352B434D8868
:1033C00006EA05352B43FE4DA84202D0FD4DA8422A
:1033D00008D14BF6FF752C400D8A4FF6FF7606EAB2
:1033E00085152C43848082838D680564038470BDB9
:1033F000002101804180818081608181C1810182C1
:103400004182704770B503460020002418461830EA
:1034100001258D40ACB21D8CA5431D8409B108293E
:103420000AD100EB610005684FF68F7635400560E4
:103430000568154305600FE00D1FC5F34E052844D0
:10344000056848F6FF763540056005684FF6FF765B
:1034500006EA02263543056070BD4163704781630B
:103460007047C1637047016470470A460021018BB1
:103470004FF68F7319401143018370470A460021AC
:10348000018B48F6FF7319404FF6FF7303EA0223DE
:103490001943018370470A460021818B4FF68F73D1
:1034A00019401143818370470A460021818B48F6F9
:1034B000FF7319404FF6FF7303EA02231943818318
:1034C00070470A460021018B4FF6F77319401143EC
:1034D000018370470A460021018B4FF2FF731940A8
:1034E0004FF6FF7303EA02231943018370470A462C
:1034F0000021818B4FF6F773194011438183704788
:103500000A460021818B4FF2FF7319404FF6FF737B
:1035100003EA02231943818370470A460021018B85
:103520004FF6FB7319401143018370470A4600218F
:10353000018B4FF6FF3319404FF6FF7303EA022366
:103540001943018370470A460021818B4FF6FB73B4
:1035500019401143818370470A460021818B4FF641
:10356000FF3319404FF6FF7303EA022319438183A7
:1035700070470A460021018B4FF67F7319401143B3
:10358000018370470A460021018BC1F30E014FF6FB
:10359000FF7303EA02231943018370470A4600219F
:1035A000818B4FF67F7319401143818370470A4620
:1035B0000021818BC1F30E014FF6FF7303EA022352
:1035C0001943818370470A460021018C4FF6FD7331
:1035D00019401143018470470A460021018C4FF6BF
:1035E000F77319401143018470470A460021018C8A
:1035F0004FF6DF7319404FF6FF7303EA02131943C6
:10360000018470470A460021018C4FF67F731940F0
:103610004FF6FF7303EA02131943018470470A4609
:103620000021018C4FF6FF5319404FF6FF7303EA58
:1036300002231943018470470A460021018C4FF28E
:10364000FF7319404FF6FF7303EA02231943018405
:1036500070470A460021018C4DF6FF7319404FF662
:10366000FF7303EA023319430184704730B5002326
:1036700001248C40A3B2048C9C430484048C02FA81
:1036800001F5ADB22C43048430BD30B500230424D1
:103690008C40A3B2048C9C430484048C02FA01F590
:1036A000ADB22C43048430BD828B4FF2FF331A40FD
:1036B0008283828B4FF6FF7303EA01231A438283CE
:1036C0007047F0B50C461546002100220026078CF5
:1036D0004EF6FF7C07EA0C070784818B028C4FF6BD
:1036E000FF7707EA043640F6FF4739404FF6FF7789
:1036F00007EA052739434FF6FF7707EA03373943CF
:1037000045F6FF773A4046F480573A438183028476
:10371000F0BD828B4FF6F3731A408283828B0A438B
:1037200082837047F0B50C46154600210022002622
:10373000078C4FF6FF6C07EA0C070784818B028C1D
:103740004FF6FF7707EA04264FF60C7739404FF61D
:10375000FF7707EA03172F4339434FF2FF573A40E9
:1037600046F480773A4381830284F0BD028B4FF2A6
:10377000FF331A400283028B4FF6FF7303EA0123E3
:103780001A4302837047F0B50C461546002100220B
:103790000026078C4FF6EF7C07EA0C070784018BA5
:1037A000028C4FF6FF7707EA041640F6FF473940D0
:1037B0004FF6FF7707EA033739434FF6FF7703E009
:1037C000000001400004014007EA052739434FF695
:1037D0005F773A4046F010073A4301830284F0BD18
:1037E000028B4FF6F3731A400283028B0A43028363
:1037F0007047F0B50C46154600210022068C4FF6A6
:10380000FE773E400684018B028C4FF60C763140E9
:103810007E1C06EA03162E4331434FF6F5763240FE
:1038200044F00106324301830284F0BD70B50546C1
:103830000C46208850B92389A28861882846FFF762
:10384000D8FFE1882846FFF7CBFF25E02088042831
:103850000AD12389A28861882846FFF794FFE1886E
:103860002846FFF783FF17E0208808280AD123891C
:10387000A28861882846FFF755FFE1882846FFF7B0
:1038800048FF09E02389A28861882846FFF719FFCD
:10389000E1882846FFF708FF70BD002101804180C4
:1038A000012181800021C180018170472DE9F04113
:1038B00005460C4600260127608808B9022600E06C
:1038C0000026A088012801D1022700E001272088D6
:1038D000A0B92389A28861882846FFF78AFFE1887A
:1038E0002846FFF77DFF23893A4631462846FFF7F1
:1038F0004AFFE1882846FFF739FF13E02389A288B1
:1039000061882846FFF73FFFE1882846FFF72EFF32
:1039100023893A4631462846FFF76BFFE18828465F
:10392000FFF75EFFBDE8F0810146486B7047014636
:10393000886B70470146C86B70470146086C70473A
:103940000A884B881A438B881A43CB881A430B8901
:103950001A434B891A438B891A43A0F844207047B5
:103960000021018041808180C1800181418181816C
:10397000704731B1B0F8442042F40042A0F844202E
:1039800005E0B0F84420C2F30E02A0F844207047CE
:1039900021B1828842F00402828004E082884FF6DE
:1039A000FB731A408280704721B1828842F0010285
:1039B000828004E082884FF6FE731A40828070474E
:1039C0001AB183890B43838102E083898B4383810E
:1039D00070478182704702460020138A0B4201D053
:1039E000012000E000207047CA430282704730B5D2
:1039F0000246002000230024158A05EA0103958968
:103A000005EA010413B10CB1012000E0002030BD33
:103A1000CA430282704741EA0203A0F84830704767
:103A20001AB183890B43838102E083898B438381AD
:103A3000704721B1828842F00802828004E08288C7
:103A40004FF6F7731A408280704701894FF6F8727B
:103A50001140018170470A46002101894FF68F739A
:103A6000194011430181704730B504460D4629467F
:103A70002046FFF7F0FF208940F00700208130BD8D
:103A80002DE9F04104460D4616461F46602D06D12D
:103A90003B46012231462046FFF775FE05E03B46D6
:103AA000012231462046FFF7A4FE29462046FFF7B3
:103AB000D2FF208940F007002081BDE8F08130B5B9
:103AC0000C4600210189C9B24FF6FF7505EA0325AE
:103AD000154325432943018130BD2DE9F0410546B9
:103AE0000E4617469846002443463A463146284635
:103AF000FFF7E5FF2C894FF6F870044044F0070407
:103B00004FF68F70044044F070042C81BDE8F081C2
:103B1000F0B504460D4616461F463B46324629463A
:103B20002046FFF7CCFF208940F480402081F0BD83
:103B300082884FF68F731A40828082880A4382807F
:103B4000704702894FF6F8731A40028102890A43CE
:103B50000281704702894FF67F731A400281028901
:103B60000A4302817047F0B50C4615461E460021F7
:103B7000002200230189028B038C4FF6F87739402D
:103B800021434FF6FC473A4040F201173A434FF6C3
:103B9000DD773B404FF6FF7707EA06172F433B439D
:103BA000018102830384F0BD21B1828842F080024A
:103BB000828004E082884FF67F731A4082807047CB
:103BC000A0F8501070472DE9FE4F81EA030404F07D
:103BD000004421F0004100944FF0000B23F000431B
:103BE00050EA010402D052EA030404D10020014645
:103BF00003B0BDE8F08FC3F30A54C1F30A552C4457
:103C0000A4F2F3340194A0FB0254C1F3130141F474
:103C10008011C3F3130343F4801301FB024400FB40
:103C2000034E840A970A44EA815447EA8357A4FB67
:103C3000076802958D0A05FB07854FEA932C04FB64
:103C40000C542705029D4FEA065847EA1637B5EB94
:103C500008056EEB070C870E920E47EA811742EAC1
:103C60008312A7FB0201B6EB0B0164EB00042B0DE2
:103C700043EA0C335E1844EB1C50DA465146E7FB2E
:103C80000201C5F313044FEA0B3343EA14534FEA1E
:103C90000432019C43EA0603A4F10C040294009C44
:103CA000CDE900B400F0F7F8A2E72DE9F04D81EA84
:103CB000030404F0004B21F0004514464FF0000AC5
:103CC00023F0004150EA050220D054EA01021DD041
:103CD000C5F30A570246C5F31303C1F31300C1F33A
:103CE0000A5640F4801543F48013A7EB0608101B16
:103CF000D64608F2FD3873EB050002D308F101083F
:103D000001E092185B41B8F1000F03DA0020014690
:103D1000BDE8F08D00204FF48011064684460EE089
:103D2000171B73EB050705D3121B63EB0503064353
:103D30004CEA010C49084FEA300092185B4150EA06
:103D40000107EDD152EA030012D082EA040083EAAF
:103D50000501084303D100224FF0004308E0101B87
:103D6000AB4102D20122002302E06FF001025310A6
:103D70001AEB06004CEB085110EB0A0041EB0B016B
:103D8000BDE8F04D00F07AB800F0004230F000409D
:103D90000AD0C10D01F56071C0F3160042EA01516D
:103DA000C2084007114370470020014670470000D9
:103DB00030B5002904DB4FF00044404264EB0101C0
:103DC000002B04DB4FF00044524264EB03038B42B0
:103DD00008BF824230BD000001F0004330B421F042
:103DE000004150EA010206D00A0DA2F56072C1F34B
:103DF0001301002A02DC30BC00207047440F44EA63
:103E0000C104C100E01830BC00EBC250AFF3008029
:103E10000029A8BF7047401C490008BF20F00100DE
:103E2000704710B4B0FA80FC00FA0CF050EA0104BC
:103E300004BF10BC704749B1CCF1200421FA04F44E
:103E400011FA0CF118BF012121430843A3EB0C0127
:103E5000CB1D0106000A002BBEBF002010BC70471E
:103E600000EBC35010440029A4BF10BC7047401C95
:103E7000490008BF20F0010010BC704710B5002BAE
:103E800008DA401C41F1000192185B411A4301D14C
:103E900020F0010010BD2DE9F04D92469B4611B176
:103EA000B1FA81F202E0B0FA80F22032904600F0DE
:103EB0004FF904460F4640EA0A0041EA0B01534617
:103EC0005A46084303D120463946BDE8F08D1146D5
:103ED00053EA010015D0C8F14002504600F047F9FE
:103EE00005460E4650465946424600F031F9084311
:103EF00001D0012000E00020054346EAE0762C4393
:103F000037430A984FEA4453A0EB08004FEAD42401
:103F10000A304FF0000244EA47544FEAD72502D551
:103F200000200146D1E7010510196941DDE9084586
:103F300000196941BDE8F04DA0E72DE9FE4F80462C
:103F400081EA0300C00F0C46009021F0004123F0ED
:103F50000045B8EB0200A94105D2404621469046F3
:103F60001C460B46024623F00040104304D1404655
:103F7000214603B0BDE8F08F270DC7F30A00C3F355
:103F80000A510290401A0190402866DAC3F31300E8
:103F900040F4801B0098924620B10023D2EB030A24
:103FA00063EB0B0B01985946C0F14002504600F0FC
:103FB000CFF806460D4650465946019A00F0E7F8FC
:103FC00010EB08006141002487EA115284EAE7738C
:103FD0001A433BD0009A3AB3019A012A4FEA07529A
:103FE00010DC001B61EB02014FF0004202EA0752B5
:103FF000CDE90042001C41F5801132462B46FFF707
:104000004AFFB6E7001B61EB0201001C41F580137B
:1040100000185B412018A2F5001747EB030140EAA6
:10402000D570B6196D4111E06D084FEA360645EAC4
:10403000C0754FEA0752001B61EB0201001C41F5FD
:10404000801149084FEA30000019514132462B4691
:1040500003B0BDE8F04FFFF711BF00980122400008
:104060000023D0EB020263EBE073009821464FEA95
:10407000E074B8EB000061EB0401E9E783F0004372
:104080005BE781F0004158E72DE9F04D00231A4627
:104090001B1A8A4103DB00200146BDE8F08DC1F305
:1040A0000A52C1F3130141F480154FF0000BD10700
:1040B00002D100186D41521E0027044640F2FF1144
:1040C000384601EB620A3E468046024600204FF425
:1040D000801100F04CF8C2197141BB1846EB010089
:1040E000B4EB030C75EB000C04D3E41A65EB00058C
:1040F00017460E46241908F101006D418046342808
:10410000E3DDF91946EB0600091BA84103D24FF085
:10411000FF32134601E0002213461BEB070046EB7B
:104120000A51BDE8F04DFFF7A9BE0000064C074D4F
:1041300006E0E06840F0010394E807009847103477
:10414000AC42F6D3FCF724F8485A0008785A000825
:10415000202A04DB203A00FA02F100207047914047
:10416000C2F1200320FA03F3194390407047202A3C
:1041700004DB203A21FA02F00021704721FA02F311
:10418000D040C2F120029140084319467047202ACE
:1041900006DBCB17203A41FA02F043EAE07306E06F
:1041A00041FA02F3D040C2F120029140084319467F
:1041B000704700000000000003B40198410000981F
:1041C00050EAC12018BF04204A0D18BF40F001007A
:1041D00040F2FF72B2EB515F08BF40F002000128CD
:1041E00008BF052002B0704770B59F482DED020B47
:1041F0002DED068B079D25F0004484421DDB9B4876
:10420000844202DC0FD1069868B19DED060B53EC99
:10421000102B51EC100BFFF790FEBDEC068B02B09B
:1042200041EC100B70BD002DCCBF9FED910B9FEDAD
:10423000920BBDEC068B02B070BD9148844215DA3A
:1042400090488442A8BF4FF0FF3440DA9DED060B42
:1042500051EC100BFFF7B0FF042808BF00F0FCF989
:104260009DED060BBDEC068B02B070BD9DED060BFF
:1042700051EC100B00F06AFA41EC100B82488DED06
:10428000060B9FED838B84423CDA834884421FDA1D
:1042900000249FED839B51EC100B53EC192BFFF77F
:1042A0004CFE9DED060B41EC1A0B53EC192B51EC17
:1042B000100BFFF788FC53EC182BFFF7DFFE53ECD5
:1042C0001A2BFFF7F2FC41EC100B8DED060B49E0C9
:1042D000012453EC182B51EC100BFFF72EFE9DED33
:1042E000060B41EC190B53EC182B51EC100BFFF79C
:1042F000C5FE53EC192BFFF7D8FC41EC100B8DEDEC
:10430000060B2FE0684884421FDA02249FED689B69
:1043100051EC100B53EC192BFFF755FC53EC182BF9
:10432000FFF70BFE9DED060B41EC180B53EC192B20
:1043300051EC100BFFF7A2FE53EC182BFFF7B5FC66
:1043400041EC100B8DED060B0CE053EC102B03240D
:104350009FED590B51EC100BFFF7A7FC41EC100B34
:104360008DED060B9DED060B53EC102B51EC100B55
:10437000FFF729FC41EC180B53EC182BFFF723FC3B
:1043800041EC190B4E480621B0EE490AF0EE690ADD
:10439000784400F0E4F853EC182B51EC100BFFF7C5
:1043A00012FC41EC180B4748B0EE490AF0EE690ADE
:1043B0000521784400F0D3F853EC192B51EC100B85
:1043C000FFF701FC41EC100B51EC180B53EC102BD8
:1043D000002C0EDAFFF7B1FD9DED061B53EC112BFF
:1043E000FFF7F1FB9DED061B53EC112BFFF749FE88
:1043F00035E0FFF7A2FD9DED061B53EC112BFFF7F7
:10440000E2FB41EC100B3048784400EBC40090ED27
:10441000001B51EC100B53EC112BFFF72FFE9DED01
:10442000061B53EC112BFFF729FE41EC110B27481B
:10443000784400EBC40090ED000B51EC110B53ECF1
:10444000102BFFF71EFE41EC100B002DA2BFBDECA0
:10445000068B02B070BD51EC100B81F0004141ECB5
:10446000100BFFE600000000000010440000F07F89
:10447000182D4454FB21F93F182D4454FB21F9BF5A
:104480000000DC3F0000203E0000F33F0000000081
:10449000000000000000F03F0000E63F00000000C8
:1044A0000000000000000040008003400000000009
:1044B000000000000000F83F000000000000F0BF16
:1044C000841600003A160000C41500007C15000098
:1044D0002DED020B019820F0004001909DED000BA6
:1044E00002B0704700B52DED048BB0EE408AF0EEBF
:1044F000608A83B051EC180BFFF7C6FD41EC190B35
:1045000019EE100A19EE901A8DED009B002818BFC5
:104510000120084320F00040C0F17F6000F1E0403E
:10452000C00F14D018EE101A18EE900A8DED008B03
:10453000002918BF0121084320F00040C0F17F602E
:1045400000F1E040C00F04BF012000F0A5F8B0EE7C
:10455000490A03B0F0EE690ABDEC048B00BD70B5EA
:1045600004462DED028B4D1E00EBC500B0EE408AD7
:10457000F0EE608A90ED000B35F0060017D053EC9A
:10458000182B51EC100BFFF71EFB41EC100B6D1EAE
:1045900004EBC50090ED001B51EC100B53EC112BFC
:1045A000FFF7CBFC41EC100B35F00600E7D1022DF4
:1045B00036D0042D1CD0062D1CBFBDEC028B70BD67
:1045C00053EC182B51EC100BFFF7FDFA94ED0A1B7E
:1045D00053EC112BFFF7B1FC53EC182BFFF7F3FA58
:1045E00094ED080B53EC102BFFF7A7FC41EC100BDC
:1045F00053EC182B51EC100BFFF7E5FA94ED060B7A
:1046000053EC102BFFF799FC53EC182BFFF7DBFA58
:1046100094ED041B53EC112BFFF78FFC41EC100BB6
:1046200053EC182B51EC100BFFF7CDFA94ED020B65
:1046300053EC102BFFF781FC53EC182BFFF7C3FA58
:1046400094ED000B53EC102BFFF777FCBDEC028BC5
:1046500041EC100B70BD00009FED050B10B553EC45
:10466000102B51EC100BFFF7AEFA41EC100B10BD04
:10467000000000000000001002E008C8121F08C17E
:10468000002AFAD170477047002001E001C1121FD3
:10469000002AFBD170470000014908607047000004
:1046A0000401002010B5002A06DA22F00042D21DD3
:1046B00022F00703102203E0D21C22F003030C2295
:1046C00013B19C188C4201D9012010BD0244014451
:1046D0008360C0E90021C91AD018884202D810604E
:1046E0000246F9E70020106010BD0000084800688D
:1046F000C0010BD507480068C00707D005488038BF
:104700000068002802DA04490120087070470000A0
:10471000FCED00E0800E00E0FA0000204FF0604267
:10472000D36F002BFCD0C36AD367D36F002BFCD0B0
:10473000C07840EA0120A2F87C0070474FF0604149
:10474000CA6F002AFCD081F87C00704741EC100B46
:1047500082B010EE900A8DED000B20F00040019029
:104760009DED000B02B051EC100B704770B50400CA
:104770000D4603D012B92078012801D0802070BDE9
:10478000204600F013FB28B12946204600F040F8EF
:10479000002070BD812070BD0246084810B500EBB6
:1047A000810050F8040C002806D0114600F052FC9D
:1047B000BDE8104000F03EBC10BD0000141B00100E
:1047C00010B504468089002821D0608904EB800060
:1047D000006908606078022805D10021204600F0B9
:1047E00039FC00F027FC04F10C0000BFD0E85F1F8B
:1047F000491EC0E8521F002AF8D16089401C80B2CF
:104800006081E189884201D100206081042010BDCF
:1048100010B500F01FFCBDE8104000F00BBC10B557
:10482000002100F017FCBDE8104000F003BC0000C0
:10483000EFF3058109B182207047DFF808C000DF7F
:1048400070470000C9550008EFF305820AB18220C5
:104850007047EFF31482144B12F0030206D0012AC2
:104860001BD0022A11D0032A19D113E0EFF30882DA
:1048700082F309881A78D2070AD0022282F31488B8
:10488000BFF34F8FBFF36F8F09E01A78D20706D1BD
:104890000322F3E71A78D20701D0FF207047DFF830
:1048A0000CC000DF7047000018590008DD550008F3
:1048B0002DE90E40EFF30582B2B102004FF0800007
:1048C00000D021B10090DDE9011203B000BD1178E4
:1048D0000129F7D101A91046FFF772FF042801D082
:1048E0000020EFE71020EDE7DFF804C000DFECE781
:1048F000D55600082DE91040EFF3058159B100F0BD
:10490000EFF9802128B10278022A02D1FFF787FF50
:104910000021084610BDDFF808C000DF10BD000010
:104920000F570008EFF3058212B14FF0FF307047C8
:10493000DFF804C000DF7047295700082DE97040F8
:10494000EFF3058272B10C4600F078FD4FF00045A0
:1049500030B1210C04D1058BC178A0B2FFF71CFF48
:10496000284670BDDFF804C000DF70BD5F57000847
:10497000EFF305830BB182207047DFF808C000DF3A
:104980007047000085570008EFF305820AB1002048
:104990007047DFF808C000DF70470000D9570008F3
:1049A000DFF80CC000DFDFF80CC000DFFEE700001E
:1049B0004958000865580008DFF804C000DF704758
:1049C0009D580008094C4FF0FF3529462068FFF735
:1049D0006FFF02460846102AF7D1FFF7EDFF0028C7
:1049E000F3D0024608469047EFE700002000002081
:1049F0004FEA000151E8000F28B1036841E8003296
:104A0000002AF7D17047BFF32F8F704710B568B1F8
:104A100061B10B3121F00302016844680B1A1B1BC2
:104A2000934205D2084609680029F5D1002010BD3F
:104A30003CB121180368C1E90032016001F10800AE
:104A400010BD4260083010BD70B50C46002812D071
:104A50004FF6FF71084D884204D22A68014610467D
:104A600000F024FB28684470044800F025F9BDE8F4
:104A7000704000F011BC70BDEC00002078020020F6
:104A80000F4810B50D4942680E480B6800889342E4
:104A900004D00A60CB88421E1A448A808A888242E7
:104AA0000AD100200860064800F006F90146BDE87A
:104AB0001040034800F028BB10BD0000FC0000209F
:104AC00078020020F800002070B5194DE868002831
:104AD0002CD0A88A401EA882002621E0A06838B108
:104AE00061684160606810B1A16881606660A6601D
:104AF0000F482146183800F007FBA08AA88260788A
:104B0000042804D10B49E08A09880844A0820120C6
:104B10006070E068E860E06808B10561E660266101
:104B2000A88A002802D1EC68002CD7D170BD000003
:104B300090020020F800002070B504000FD00D4D49
:104B4000A17801262868827891420CD900F0F8FA01
:104B5000286846702046BDE8704000F09DBB0648BE
:104B600000F0AAF8F7E766702146BDE870400248F9
:104B700000F0CABAEC000020780200200321FFF701
:104B800063BF000010B50446008B084320836278A1
:104B9000618B062A18D0052A19D1084217D001EADC
:104BA0000002628388432083204600F0E9FA012056
:104BB0006070628B0821204600F0DAFA2146BDE8D9
:104BC0001040034800F0A0BA31EA0002EAD010BD5C
:104BD000780200200246154810B500EB810050F81D
:104BE000044C002C21D0208B104320836278618BF1
:104BF000062A17D0052A18D1084216D001EA000269
:104C0000628388432083204600F0BAFA0120607056
:104C1000628B0821204600F0ABFA2046BDE8104028
:104C2000FFF78ABF31EA0002EBD010BD141B001061
:104C300003460E4810B504688C46208B42B133EA17
:104C4000000101D0062009E098432083022010BD16
:104C500010EA030201D06283F6E70520C1B2638344
:104C60006046FFF7F1FE012010BD0000EC000020BF
:104C7000814202D342688A4201D80120704750E83D
:104C8000002F0A6040E80012002AF8D10020704787
:104C900068B161B10839002202E00246006830B113
:104CA0008842FAD12AB100681060002070470120C4
:104CB000704700214160F8E70146406842684A6059
:104CC0000B780022022B05D0012B03D0032B01D03F
:104CD0004260704743680BB19960426082607047E0
:104CE000810700D00020704770B5044600201546AB
:104CF000207001226270A1706060A060E06020619D
:104D0000A082E0822083608384F82000608C18B940
:104D10000448FFF76DFEA06229462046BDE87040BA
:104D200000F01CB86001001008B1082901D2012070
:104D300070470144091F002201600A60426010466A
:104D40007047000003480021016003490968C180E1
:104D500070470000FC0000201059000810B5428C7C
:104D6000920803D10F4A1268C2F38D02836A03EBE3
:104D70008202530700D5121F403A4FF08073C2E9F8
:104D80000E1300234FEA030442F823405B1C0E2B52
:104D9000FAD3C36913624262C162806A0249016048
:104DA00010BD00000C590008A52E5AE2C189808967
:104DB000081A70470122027000224270827042601D
:104DC00002814281103982818908C18170470000C7
:104DD0002DE9F0410446407800270E464FF00108C7
:104DE000012855D004F10C0502282BD0032818D037
:104DF000A089E189884262D2208904EB80000661A3
:104E0000D5E85F0F401CC5E8510F0029F8D1208973
:104E1000401C80B22081E189884200D12781BDE811
:104E2000F0810846FFF7E4FD0600F8D02046FFF7C2
:104E300043FF0546606800B967703146284600F0B8
:104E400091F931E02046FFF737FF0646606800B968
:104E500067700021304600F085F92189F06904EB84
:104E600081010861D5E85F0F401CC5E8510F00299A
:104E7000F8D12089401C80B22081E189884200D18C
:104E8000278186F80180304600F07AF9314611E03A
:104E90002046FFF711FF0546606800B9677032468B
:104EA0001021284600F064F985F80180284600F0BA
:104EB00067F92946BDE8F041034800F025B9BDE88F
:104EC000F0410320FBF742BB7802002070B5044696
:104ED000808915460026C8B3608904EB800000690C
:104EE00008606089401C80B26081E189884200D1FD
:104EF0006681607802280AD014F10C04D4E85F0FB0
:104F0000401EC4E8510F0029F8D1002070BD204692
:104F1000FFF7D2FE0546606800B96670002128469A
:104F200000F020F92189E86904EB810108612089FA
:104F3000401C80B22081E189884200D12681284628
:104F400000F01EF92846FFF7F7FDDEE7FFE73DB169
:104F50000A48626801682AB1204600F0D5F807E0E7
:104F6000012070BD61600068C0E9016401206070CB
:104F700008212846FFF768FDF2E70000EC0000205A
:104F8000411C13D00B4A4FF6FE7190420CD800EB37
:104F90004002C2EBC0120848036803EBC202521E73
:104FA000B2FBF3F0884200D9084670474FF6FF7015
:104FB0007047000000093D001C59000870B51A48F0
:104FC00001210068417000F0BBF8184D6C7816E0C4
:104FD00005EBC40148680278E2B1012A1FD000F055
:104FE000FBF8E878641C844200D100240F48801C40
:104FF000D0E84F1F491EC0E8421F002AF8D1A87808
:105000000028E5D16C700A48FFF756FEBDE87040F5
:1050100000F042B9896889B2FFF7B4FDE1E7896819
:10502000FFF7D6FEDDE70000EC000020901A00102C
:10503000780200200548017811B1012141707047C4
:1050400003494FF08050086070470000F4000020D2
:1050500004ED00E0F0B4144B9C1CDD784FEA030C27
:10506000D4E84F2FAA4202D1BFF32F8F0EE0521C7B
:10507000C4E8462F002EF3D1DCE84F2F541CAC427D
:1050800000D10024CCE8464F002EF5D1DC789442C4
:1050900005D903EBC202C2E90101F0BC7047F0BCC4
:1050A0000220FBF753BA0000901A0010154A10B501
:1050B000D368FBB113469B8A09E000BFD2F80CC04D
:1050C000BCF1000F16D0BCF81440624623448B425A
:1050D000F4D3D468C460D0600261D0F80CC0BCF1D5
:1050E000000F01D0CCF81000591A8182908A401A22
:1050F000908210BD0024C460D060C91A0261918200
:10510000848210BD9002002010B502780023022A8C
:1051100003D0012A01D0032A00D1012391F802C053
:1051200000E01046426812B194786445F9D24A60B2
:1051300041601BB102B19160886010BD0020FBE7A7
:1051400003494A684260002282604860704700005C
:105150007802002090F82010406A09B16030704752
:105160002030704710B50C46FFF7F4FF046010BD07
:1051700070B50C461546FFF7EDFFC0E9004570BD60
:1051800010B5016900290ED0C268CA60C368002248
:105190003BB18B8A848A23448B82C3681961C260C5
:1051A00000E08A82026110BD816839B142684A60BC
:1051B0004168002901D0806888607047054906E091
:1051C0004A68824202D1406848607047114600290F
:1051D000F6D170477802002010B5416881B1FFF721
:1051E0006BFD0446FFF7CCFF0120607001462046AE
:1051F000FFF7B8FF2146BDE810400348FFF784BF22
:105200004188491C418010BD7802002010B54168DA
:1052100061B1FFF751FD04460121FFF7A3FF2046CE
:10522000FFF7AEFF2046FFF787FC02E04188491CEC
:105230004180002010BD000010B50C46418819B116
:10524000491E4180002010BD34B1094A43681168ED
:1052500023B1FFF759FF06E0012010BD416011683E
:105260000023C1E9013007212046FFF7EDFBF3E7FA
:10527000EC00002006480068D0E90910814203D301
:1052800000680449884202D00120FBF75FB97047EB
:10529000EC000020A52E5AE2074902224860427025
:1052A000064A1278002A05D006C98A4202D0C07880
:1052B000FFF744BA70470000EC000020FA0000201D
:1052C0002DE9F04104460D469046FFF70FFA002005
:1052D00006463849384B02E041F82060401C1A88E5
:1052E0009042F9D33548302201883548FFF7DAF982
:1052F0003448006880B240F00042334801683348C7
:10530000FFF7D0F932480822018832480068FFF7D9
:10531000C9F9314FFF20314AF8707E8400213846A8
:10532000FFF7E2FC2E480421017046602D48017011
:10533000C66006618682786A2030FAF733FF2A4811
:105340002B4907600220787028480670467009785B
:10535000C170284801684FF0E02041618661072153
:10536000016125480168254A11430160006822490E
:1053700000F07F40C0431439B0FA80F00968C0F1F2
:105380000800C1F30221814200DB481C1A49091FB1
:105390000B686FF08072824063F317020A60FFF7B8
:1053A000D1FC424629462046BDE8F041002300F0EA
:1053B0006DB80000141B001008590008245900089B
:1053C000000000100C590008285900086001001066
:1053D0004C59000818000020480200204905000828
:1053E0007802002090020020EC000020901A0010AB
:1053F000305900081459000820ED00E00000FFFFBC
:105400000B4810B5006801214170FFF799FEFFF7C6
:1054100037FB08490888401C0880FFF755FB00F05F
:1054200049FA0548FFF748FCBDE81040FFF734BFD4
:10543000EC000020F800002078020020002805D0B1
:10544000810702D10178002900D0002070470000B8
:1054500030B50D4C0023226808E000BFB2F808C048
:105460008C4505D813461268A1EB0C01002AF5D132
:1054700089B20260018112B11589691A11810BB1DB
:10548000186030BD206030BDE80000202DE9F041FB
:10549000804616461F460D4611F0FF0F00D14D1CE9
:1054A0001648FFF7A5FA040026D0280AA6626084F1
:1054B000E9B242462046E761FFF716FC0125104895
:1054C000104905E000EB850252F8042C22B16D1C56
:1054D0000A889542F6D9002500EB850040F8044C77
:1054E0000948E570007818B101212046FFF716F948
:1054F0002046FFF721FB2846BDE8F08100000010A0
:10550000141B001008590008FA0000202DE9F04192
:10551000244C234F244B22680026D17808B18142C5
:1055200018D103EB8100567040F8046C1F48916A53
:10553000FFF79EFB20688662397811B10021FFF7E2
:10554000EDF81B482168FFF793FB00202660FFF76A
:10555000F3FA1FE01749098888421ED803EB80053B
:1055600055F8044CCCB12046FFF71EFE2046FFF74D
:1055700007FE45F8046C0D48A16AFFF779FBA662A7
:10558000387818B100212046FFF7C8F821460848AE
:10559000FFF76EFB0020BDE8F081FF20FBE7000075
:1055A000FA000020EC000020141B00106001001025
:1055B000000000100859000802480068002800D0C8
:1055C000C0787047EC00002010B5002805D0FFF728
:1055D000D7FC80B2FFF7D2FA402010BD70B50400AE
:1055E0000D4608D0206830B1B4F9040010F1030F63
:1055F00001DB032801DD862070BD244E306840B1F8
:10560000204600F0E9F8A0B100F01EF900F02AF9F8
:1056100037E01F4840070CD11E4801681C48FFF7BF
:1056200083FB30B9E16831B11948FFF7EFF90200A7
:1056300002D1852070BD0022B4F90400E168001D8C
:1056400040EA01212068FFF73BFE7068D8B1C078BE
:10565000114901EB800050F8040C3060416A0D6282
:10566000406A0E49416300210D4800F021F80D49C0
:10567000086000210C4800F0AFF80C4908600020D9
:105680003060002070BDFF2070BD0000EC000020E5
:10569000301400102C590008141B0010A1490008F8
:1056A0004459000820000020345900081C00002044
:1056B00010B5040005D0216819B1606808B10278FE
:1056C0000AB1002010BD8900103189B2FFF772FBCA
:1056D000606810BD3EB504000D464FF0800012D04A
:1056E000217801290FD12846FFF74AFC82B201A98F
:1056F0002046FFF7EBFB012801D0102003E00DB19D
:10570000402000E00020DDE9011203B030BD10B5FB
:10571000FFF7E6FA10B10178022901D0802010BD10
:10572000FFF774FD002010BD70B50D46FFF7D8FAE5
:1057300004004FF0FF3102D02078022801D0084643
:1057400070BD2846FFF71CFC81B22046FFF774FDB0
:10575000012802D06088401C70BD002070BD70B56B
:105760000C46FFF76BFE4FF0004108B1220C01D050
:10577000084670BD058BC178A0B2FFF72BFA28460A
:1057800070BD000070B504460D46000C01D08620A7
:105790001EE008462CB1FFF7F3FB81B20122A0B254
:1057A00005E0FFF7EDFB81B200224FF6FF70FFF737
:1057B0003FFA022802D04DB1402008E008200CB189
:1057C000214605E003490968498B01E000200021DA
:1057D000324670BDEC00002070B504000E462BD0A0
:1057E000206848B3B4F9040010F1030F24DB032848
:1057F00022DCE16829B11148FFF708F9050015D04E
:1058000000E00025B4F90400E168001D40EA012130
:1058100033462A462068FFF739FE40B1084901EBBC
:105820008000084950F8040C426A516370BD1DB1F4
:1058300029460248FFF72CFA002070BD30140010F2
:10584000141B0010A149000810B5FFF7B5FE002891
:1058500004D0034901EB800050F8040C10BD000097
:10586000141B001070B5FFF7E9FD040003D0608C35
:1058700018B1A56A02E0802070BD0025E078FFF72E
:1058800045FEFF2806D01DB10348A16AFFF700FAC4
:10589000002070BD812070BD3014001010B5FFF7DE
:1058A0001FFA20B101690A68C168104610BD0020C6
:1058B000014610BD2DE9F041114E3468002C18D07E
:1058C0002089104F401E20814FF001080EE0254630
:1058D00024683460002229463868FEF747FF68795B
:1058E000012808D085F80480002C02D020890028E7
:1058F000EDD0BDE8F08169892846FFF7A9FDF3E7FF
:10590000E800002020000020070000002003020122
:10591000050001003F90020001000000E8030000C4
:10592000000000005C010000D012000060060000D2
:1059300010000000C549000802000000010000003E
:105940002003000004000000301B001000000000D5
:1059500051050008000000000100000020030000C5
:10596000640000203D070008000000000100000066
:10597000000000007C00002088000020940000202F
:10598000AB0F000800000000010000000000000054
:1059900045120008000000000100000000000000A7
:1059A000FD170008000000000100000000000000DA
:1059B0004FBB610567ACDD3F182D4454FB21E93F27
:1059C0009BF681D20B73EF3F182D4454FB21F93F16
:1059D000E2652F227F2B7A3C075C143326A6813C9C
:1059E000BDCBF07A8807703C075C143326A6913C47
:1059F000C4EB98999999C9BF711623FEC671BCBFB3
:105A00006D9A74AFF2B0B3BF9AFDDE522DDEADBF1A
:105A10002F6C6A2C44B4A2BF0D5555555555D53F32
:105A2000FF8300922449C23F6E204CC5CD45B73F4D
:105A3000513DD0A0660DB13FEB0D76244B7BA93FC5
:105A400011DA22E33AAD903F785A000800000020B6
:105A50000801000078460008785A0008000000108D
:105A6000501B000088460008805B000808010020E9
:105A7000A005000088460008007A030A0000000024
:105A800000000000010203040607080900000000EE
:105A90000000000000000000000000000200000004
:105AA00001000000020000000400000001000000EE
:105AB00001000000000000000000000000000000E5
:105AC00000000000000000000000000000000000D6
:105AD00000000000000000000000000000000000C6
